:040000003EEF75F06A
:10EA62004FEC75F0C58012004FEC75F0C5841200B2
:10EA72004FEC75F002C0C9FF1200000EF86E0001E3
:10EA8200FAEF79F0036E8C940350AEEC76F012003C
:10EA9200036E8C840350AEEC76F01200C7B4FED73E
:10EAA200C5CF01F01F0E0116D8B41200F7D7026EBF
:10EAB20007D00D0E016EFC0EE82EFED7012EFCD7FC
:10EAC20002060228D8B41200F4D7036E000E026EBA
:10EAD2003A0E036005D02F0E036402D0010E026EBF
:10EAE20002C001F001301200015002100310D8B42C
:10EAF20006D0000E011A000E021A800E031A01C07F
:10EB020001F002C002F003C003F01200026E4FECEB
:10EB120075F0C5864FEC75F0C9CF03F04FEC75F078
:10EB22000250D8A402D0C58A01D0C59AC588035024
:10EB3200120001500302F3CF05F0F4CF06F00150AA
:10EB42000402F350062602500302F350062605C0C3
:10EB520001F006C002F01200036E03C001F0080EBD
:10EB6200026E01340132022EFCD70150AA6E03C09C
:10EB7200A9FFA69EA69CA680A6B0FED7A85012000A
:10EB820081A2FED7000E81B2010E036E020E58EC76
:10EB920075F081A202D0010E01D0000E0318D8A494
:10EBA20002D0010E1200000E1200046E04C002F028
:10EBB200080E036E02340232032EFCD70250AA6EF4
:10EBC20004C0A9FF01C0A8FFA69EA69CA684550E5C
:10EBD200A76EAA0EA76EA682A1A8FED7A198A69498
:10EBE20012000A500B10D8B418D0010E0C6E04D0CB
:10EBF200D8900A360B360C2A0BAEFAD70A50085CAC
:10EC02000B500958D8A004D00A50085E0B50095A7C
:10EC1200D8900B320A320C2EF1D708C008F009C086
:10EC220009F01200270E046EF50EE82EFED7042E10
:10EC3200FCD700F0330E43EC75F0320E43EC75F066
:10EC4200280E43EC75F00F0E43EC75F0060E43EC04
:10EC520075F0010E43EC75F0270E046EF50EE82EEA
:10EC6200FED7042EFCD700F0120031EC75F0000E36
:10EC7200036ED00E026E39EC75F0000E036E000EBC
:10EC8200026E39EC75F0000E046E060E046401D0BB
:10EC920010D00450010DFA0EF324F66EFE0EF4208D
:10ECA200F76E0800F550026E036A39EC75F0042A1B
:10ECB200ECD735EC75F01200066E000E076E10D020
:10ECC20081A205D0000E026E010E016E1200FF0E2F
:10ECD200036E8A0EE82EFED7032EFCD700D0072A39
:10ECE20006500A0D0750036E046AF350035C045089
:10ECF200800A056EF450800A0558D8A0E1D7000EAC
:10ED0200026E000E016E1200000E066E000E056EFF
:10ED120003500410D8B41CD0010E076E04D0D89052
:10ED220003360436072A04AEFAD7D89005360636DB
:10ED32000350015C04500258D8A005D00350015E74
:10ED42000450025A0580D89004320332072EEDD7C0
:10ED520005C001F006C002F01200026E0250F00B74
:10ED6200016E8C500F0B8C6E01508C108C6E8C9639
:10ED7200100EE82EFED700D08C86100EE82EFED79D
:10ED820000D00238F00B026E0250F00B016E8C5074
:10ED92000F0B8C6E01508C108C6E8C96100EE82E20
:10EDA200FED700D08C86100EE82EFED700D01200BF
:10EDB200000EC76E280EC66E000EC56E000E016EE6
:10EDC200120E026E7A0E036E000E046E0EC012F068
:10EDD2000FC013F010C014F011C015F0020ED8903D
:10EDE2001236133614361536E82EF9D712C005F04E
:10EDF20013C006F014C007F015C008F006EC77F057
:10EE02000104C86E948694881200000E096E000EEA
:10EE12000A6E000E0B6E000E0C6E055006100710E7
:10EE22000810D8B42AD0010E0D6E06D0D89005363F
:10EE32000636073608360D2A08AEF8D7D8900936B6
:10EE42000A360B360C360550015C06500258075044
:10EE5200035808500458D8A009D00550015E065046
:10EE6200025A0750035A0850045A0980D8900832AF
:10EE72000732063205320D2EE1D709C001F00AC071
:10EE820002F00BC003F00CC004F012000450D8B41E
:10EE920005D0015002100310D8A40CD0000E016E50
:10EEA200000E026E000E036E1200042AD890033286
:10EEB20002320132000E0114066E000E0214076EB9
:10EEC200FE0E0314086E065007100810D8B40CD0BA
:10EED200ECD7042A010E0126000E0222000E0322A4
:10EEE200D890033202320132000E0114066E000E77
:10EEF2000214076EFF0E0314086E06500710081066
:10EF0200D8B406D0E6D70406D890013602360336C6
:10EF120002BE03D0020E0460F6D704A0029ED8906F
:10EF22000432045003120550D8A4038E01C001F02C
:10EF320002C002F003C003F012000BC00FF0106A0F
:10EF4200116A0A340F3601E310800F50146E0EC09E
:10EF52000FF0106A116A0D340F3601E310800F5062
:10EF6200136E1450D8B40BD01350145CD8B00ED01A
:10EF72001450000813240F6E180E0F6407D00CC033
:10EF820009F00DC00AF00EC00BF012001350D8B4F5
:10EF92000BD01450135CD8B00ED0135000081424B8
:10EFA2000F6E180E0F6407D009C009F00AC00AF0EC
:10EFB2000BC00BF01200060E126E0BBE128E0EBEAE
:10EFC200128C0A8EFF0E0916FF0E0A16000E0B1681
:10EFD2000D8EFF0E0C16FF0E0D16000E0E161350A0
:10EFE200145CD8B01BD0D8900C360D360E361306F2
:10EFF20014501318D8B40DD0120612C00FF0070E19
:10F002000F16D8B406D0EFD7D8900B320A32093295
:10F01200142A13501418D8B41FD0F6D71450135C06
:10F02200D8B01AD0D89009360A360B3614061450C6
:10F032001318D8B40DD0120612C00FF0070E0F1617
:10F04200D8B406D0EFD7D8900E320D320C32132A34
:10F0520013501418D8A4F7D712AE0CD0FF0E091A09
:10F06200FF0E0A1AFF0E0B1A010E0926000E0A22C3
:10F07200000E0B2212AC0CD0FF0E0C1AFF0E0D1A52
:10F08200FF0E0E1A010E0C26000E0D22000E0E228D
:10F09200000E126E09500C260A500D220B500E2241
:10F0A2000EAE0ED0FF0E0C1AFF0E0D1AFF0E0E1A28
:10F0B200010E0C26000E0D22000E0E22010E126E03
:10F0C2000CC001F00DC002F00EC003F014C004F039
:10F0D20012C005F047EC77F001C009F002C00AF057
:10F0E20003C00BF012000F0E1A6E000E1B6E74D1CD
:10F0F200250E2218D8B404D0225049EC75F06CD1F8
:10F10200000E216E000E206E000E1F6E03D01F84B3
:10F112000D4A0E2A0DC0F6FF0EC0F7FF0800F5508B
:10F12200300AD8B4F4D70DC0F6FF0EC0F7FF0800BE
:10F13200F55066EC75F0D8A035D0000E216E000EA9
:10F14200206E20C001F021C002F0000E046E0A0EF3
:10F15200036E9AEC75F001C020F002C021F0D00ECF
:10F16200156EFF0E166E0DC0F6FF0EC0F7FF0800FB
:10F17200F550176E186A1550172616501822175098
:10F182002026185021220D4A0E2A0DC0F6FF0EC06D
:10F19200F7FF0800F55066EC75F0D8A003D0D1D780
:10F1A2001F8E17D00DC0F6FF0EC0F7FF0D4A0E2AB4
:10F1B2000800F5CF22F02250000AD8B41200640AE7
:10F1C200D8B407D00D0AD8B404D0110AD8B4E8D7FD
:10F1D20003D11FBE15D01AC0D9FF1BC0DAFFDECF84
:10F1E2001DF0DDCF1EF0020E1A26000E1B221EAEEF
:10F1F20044D0030E1F121D6C1E1ED8B01E2A3DD015
:10F202001AC0D9FF1BC0DAFFDECF1DF0DDCF1EF022
:10F21200020E1A26000E1B2230D0010E226E050E9F
:10F222002218D8B432D02250020DE80EF324F66E22
:10F23200FE0EF420F76E0900F5501D5C0900F55032
:10F242001E58D8A022D0222AEAD7010E226E040E1E
:10F252002218D8B41AD02250020DF20EF324F66E00
:10F26200FE0EF420F76E0900F5501D5C0900F55002
:10F272001E58D8A00AD0222AEAD71F50800B000AB3
:10F28200D8B4CBD7800AD8B4E0D720502110D8B454
:10F2920009D01FC015F0030E1516D8B403D02006EE
:10F2A200D8A02106800E22BE7F0E156E2050225C51
:10F2B2002150800A1558D8B007D02250205E000E87
:10F2C20022BEFF0E215A04D0000E216E000E206EC7
:10F2D2001FA414D01FC015F0030E1516D8B403D006
:10F2E2002D0E49EC75F020502110D8B41ED0300EEE
:10F2F20049EC75F02006D8A02106F5D72050211040
:10F30200D8B40AD0200E49EC75F02006D8A0210608
:10F3120020502110D8A4F6D71FC015F0030E1516E1
:10F32200D8B403D02D0E49EC75F022C01CF050D099
:10F332001C50020DE80EF324F66EFE0EF420F76E5A
:10F342000900F5CF03F00A00F5CF04F01DC001F06B
:10F352001EC002F085EC76F001C008F002C009F090
:10F36200000E0B6E0A0E0A6EF2EC75F00850300FAA
:10F37200226E2BD01DC001F01EC002F01C50020DE7
:10F38200F20EF324F66EFE0EF420F76E0900F5CFAE
:10F3920003F00A00F5CF04F085EC76F001500F0B74
:10F3A200196E1950010D010EF324F66EFF0EF420B2
:10F3B200F76E0800F5CF22F008D01F50800B000A2C
:10F3C200D8B4B6D7800AD8B4D5D7225049EC75F054
:10F3D2001C061C28D8A4F1D70DC0F6FF0EC0F7FFFB
:10F3E2000D4A0E2A0800F5CF22F02250D8B412009E
:10F3F2007FD6F00ED36E110E926E9368000E946E4D
:10F40200000E956E000E966E000E896E000E8A6ECC
:10F41200000E8B6E000E8C6E000E8D6E000EC26E94
:10F422000B0EC16EF19E800ECD6ECD8ACD88CD962B
:10F43200CD84CD92CD909D909E90000E286E000EB0
:10F44200636EC00E646E3F0E656E63C001F064C0F1
:10F4520002F065C003F075EC75F001C009F002C05E
:10F462000AF003C00BF0000E0C6EA00E0D6E410EE2
:10F472000E6E9EEC77F009C025F00AC026F00BC094
:10F4820027F013EC76F0000E676E000E666E100E1B
:10F492000E6E270E0F6E000E106E000E116ED9EC5E
:10F4A20076F036EC76F0000E246EB0D0000E676E69
:10F4B200000E666E13EC76F0000E356E050E3564A6
:10F4C20001D067D0000E676E000E666E31EC75F0EB
:10F4D200000E036ED00E026E39EC75F0000E036E54
:10F4E200000E026E39EC75F035EC75F031EC75F00A
:10F4F200000E036ED10E026E39EC75F0000E556EE1
:10F50200050E556401D00ED05550010D2E0EF32478
:10F51200D96E000EF420DA6E010E87EC75F0DF6E04
:10F52200552AEED7000E87EC75F0346E35EC75F087
:10F53200800E43EC75F03F0E0D6EFF0E0E6E34C062
:10F542000FF0106A33C011F0126A32C013F0146A5D
:10F5520074EC78F0C00E43EC75F04E0E0D6EFF0E9B
:10F562000E6E30C00FF0106A2FC011F0126A2EC05A
:10F5720013F0146A74EC78F0010E5DEC76F001C0C1
:10F5820066F002C067F066046710D8B402D0352A6C
:10F5920095D766046710D8B43BD013EC76F0D10E41
:10F5A2000D6EFF0E0E6E74EC78F0020E5DEC76F0CE
:10F5B20001C066F002C067F066046710D8B428D0B4
:10F5C20013EC76F0DA0E0D6EFF0E0E6E74EC78F020
:10F5D200020E5DEC76F001C066F002C067F06604D0
:10F5E2006710D8B415D013EC76F0300E0D6EFF0E06
:10F5F2000E6E74EC78F0020E5DEC76F001C066F0EF
:10F6020002C067F066046710D8B402D081A24ED758
:10F6120081380F0B0F0B5D6E81B2FED700F000F048
:10F622005D50010DD70EF324F66EFE0EF420F76E38
:10F632000800F5CF23F0D70EF66EFE0EF76E080027
:10F64200F5502318D8A42BD331EC75F0000E036EBD
:10F65200D00E026E39EC75F0000E036E000E026ED3
:10F6620039EC75F035EC75F031EC75F0000E036E87
:10F67200D10E026E39EC75F0000E566E050E566410
:10F6820001D00ED05650010D2E0EF324D96E000E6D
:10F69200F420DA6E010E87EC75F0DF6E562AEED793
:10F6A200000E87EC75F0346E35EC75F02FC05EF00D
:10F6B2002EC05FF0000E2B6E13EC76F06B0E0D6E0B
:10F6C200FF0E0E6E74EC78F0000E2D6E000E2C6E96
:10F6D2002D501BE1320E2C5CD8B017D08088060E5C
:10F6E200236E300EE82EFED7232EFCD700D0809852
:10F6F2002F0E236EC00EE82EFED7232EFCD72C4AE7
:10F702002D2AE6D7C1EC75F02B6E2B50D8B4FAD760
:10F71200000E2B6E81380F0B0F0B5D6E81B2FED780
:10F7220000F000F05D50010DD70EF324F66EFE0ED0
:10F73200F420F76E0800F5CF23F0D70EF66EFE0E1A
:10F74200F76E0800F5502318D8B439D073D013ECF3
:10F7520076F09A0E0D6EFF0E0E6E74EC78F0C00EFF
:10F7620043EC75F0E90E0D6EFF0E0E6E74EC78F040
:10F77200020E5DEC76F001C066F002C067F066042E
:10F782006710D8B41ED013EC76F05D0E0D6EFF0E2E
:10F792000E6E74EC78F0C00E43EC75F0C80E0D6E70
:10F7A200FF0E0E6E74EC78F0020E5DEC76F001C086
:10F7B20066F002C067F066046710D8B402D081A276
:10F7C200C6D713EC76F0210E0D6EFF0E0E6E74ECA2
:10F7D20078F0000E366E090E366401D00AD0FF0EA4
:10F7E200236E8A0EE82EFED7232EFCD700D0362AAF
:10F7F200F2D7000E376E090E376401D00AD0FF0E21
:10F80200236E8A0EE82EFED7232EFCD700D0372A8D
:10F81200F2D7000E386E090E386402D000EF00F005
:10F82200FF0E236E8A0EE82EFED7232EFCD700D0C1
:10F83200382AF1D731EC75F0000E036ED00E026E4D
:10F8420039EC75F0000E036E000E026E39EC75F0A5
:10F8520035EC75F031EC75F0000E036ED10E026ED0
:10F8620039EC75F0000E576E050E576401D00ED0BC
:10F872005750010D2E0EF324D96E000EF420DA6ECD
:10F88200010E87EC75F0DF6E572AEED7000E87EC7B
:10F8920075F0346E35EC75F02FC060F02EC061F05B
:10F8A20013EC76F0840E0D6EFF0E0E6E5EC00FF03E
:10F8B200106A74EC78F0A40E0D6EFF0E0E6E5FC02F
:10F8C2000FF0106A74EC78F0C00E43EC75F0780E0D
:10F8D2000D6EFF0E0E6E60C00FF0106A74EC78F0C1
:10F8E200A40E0D6EFF0E0E6E61C00FF0106A74EC66
:10F8F20078F0000E396E090E396401D00AD0FF0E7D
:10F90200236E8A0EE82EFED7232EFCD700D0392A8A
:10F91200F2D7000E3A6E090E3A6401D00AD0FF0EF9
:10F92200236E8A0EE82EFED7232EFCD700D03A2A69
:10F93200F2D7000E3B6E090E3B6401D00AD0FF0ED7
:10F94200236E8A0EE82EFED7232EFCD700D03B2A48
:10F95200F2D75E380F0B0F0B0A0D5E500F0BF3241C
:10F962005E6E5F380F0B0F0B0A0D5F500F0BF32407
:10F972005F6E60380F0B0F0B0A0D60500F0BF324F4
:10F98200606E61380F0B0F0B0A0D61500F0BF324E1
:10F99200616E5E5000086024586E5F50000861245A
:10F9A200626E62AE05D05804586E62503C0F626EB1
:10F9B200100EADEC75F05B6E600EADEC75F05C6E2A
:10F9C2005BC001F0000ED6EC75F05CC001F0500E89
:10F9D200D6EC75F0200EADEC75F05B6E700EADECF2
:10F9E20075F05C6E5BC001F0100ED6EC75F05CC079
:10F9F20001F0600ED6EC75F0300EADEC75F05B6E7A
:10FA0200800EADEC75F05C6E5BC001F0200ED6ECA2
:10FA120075F05CC001F0700ED6EC75F058C001F0C4
:10FA2200300ED6EC75F062C001F0800ED6EC75F0A7
:10FA320013EC76F0EE0E0D6EFF0E0E6E58500F6E3A
:10FA4200106A0FBE100674EC78F0BF0E0D6EFF0E3A
:10FA52000E6E74EC78F0C00E43EC75F0EE0E0D6E87
:10FA6200FF0E0E6E62500F6E106A0FBE100674EC1F
:10FA720078F0B60E0D6EFF0E0E6E74EC78F0000E7E
:10FA82003C6E090E3C6401D00AD0FF0E236E8A0E32
:10FA9200E82EFED7232EFCD700D03C2AF2D7000E48
:10FAA2003D6E090E3D6401D00AD0FF0E236E8A0E10
:10FAB200E82EFED7232EFCD700D03D2AF2D7000E27
:10FAC2003E6E090E3E6401D00AD0FF0E236E8A0EEE
:10FAD200E82EFED7232EFCD700D03E2AF2D713EC15
:10FAE20076F0F30E0D6EFF0E0E6E74EC78F0000ED3
:10FAF2003F6E090E3F6401D00AD0FF0E236E8A0EBC
:10FB0200E82EFED7232EFCD700D03F2AF2D7000ED4
:10FB1200406E090E406401D00AD0FF0E236E8A0E99
:10FB2200E82EFED7232EFCD700D0402AF2D7000EB3
:10FB3200416E090E416401D00AD0FF0E236E8A0E77
:10FB4200E82EFED7232EFCD700D0412AF2D713ECA1
:10FB520076F0F70E0D6EFF0E0E6E74EC78F0000E5E
:10FB6200426E090E426401D00AD0FF0E236E8A0E45
:10FB7200E82EFED7232EFCD700D0422AF2D7000E61
:10FB8200436E090E436401D00AD0FF0E236E8A0E23
:10FB9200E82EFED7232EFCD700D0432AF2D7000E40
:10FBA200446E090E446401D00AD0FF0E236E8A0E01
:10FBB200E82EFED7232EFCD700D0442AF2D713EC2E
:10FBC20076F0FB0E0D6EFF0E0E6E74EC78F0000EEA
:10FBD200456E090E456401D00AD0FF0E236E8A0ECF
:10FBE200E82EFED7232EFCD700D0452AF2D7000EEE
:10FBF200466E090E466401D00AD0FF0E236E8A0EAD
:10FC0200E82EFED7232EFCD700D0462AF2D7000ECC
:10FC1200476E090E476401D00AD0FF0E236E8A0E8A
:10FC2200E82EFED7232EFCD700D0472AF2D713ECBA
:10FC320076F0E20E0D6EFF0E0E6E74EC78F0000E92
:10FC4200486E090E486401D00AD0FF0E236E8A0E58
:10FC5200E82EFED7232EFCD700D0482AF2D7000E7A
:10FC6200496E090E496401D00AD0FF0E236E8A0E36
:10FC7200E82EFED7232EFCD700D0492AF2D7000E59
:10FC82004A6E090E4A6401D0C1D4FF0E236E8A0E59
:10FC9200E82EFED7232EFCD700D04A2AF2D75D5099
:10FCA200010DD70EF324F66EFE0EF420F76E080057
:10FCB200F5CF23F0D80EF66EFE0EF76E0800F55063
:10FCC2002318D8A479D0300E596E800E5A6E59502E
:10FCD200ADEC75F0296E5A50ADEC75F02A6E000E3F
:10FCE2004B6E030E4B6401D091D413EC76F0EE0E02
:10FCF2000D6EFF0E0E6E29500F6E106A0FBE1006AB
:10FD020074EC78F0BF0E0D6EFF0E0E6E74EC78F090
:10FD1200C00E43EC75F0EE0E0D6EFF0E0E6E2A5005
:10FD22000F6E106A0FBE100674EC78F0B60E0D6EF0
:10FD3200FF0E0E6E74EC78F0000E4C6E090E4C64E1
:10FD420001D00AD0FF0E236E8A0EE82EFED7232E94
:10FD5200FCD700D04C2AF2D7000E4D6E090E4D642E
:10FD620001D00AD0FF0E236E8A0EE82EFED7232E74
:10FD7200FCD700D04D2AF2D7000E4E6E090E4E640B
:10FD820001D00AD0FF0E236E8A0EE82EFED7232E54
:10FD9200FCD700D04E2AF2D75950F00F596E5A5064
:10FDA200F00F5A6E5950ADEC75F0296E5A50ADEC09
:10FDB20075F02A6E4B2A95D75D50010DD70EF324AC
:10FDC200F66EFE0EF420F76E0800F5CF23F0D90E82
:10FDD200F66EFE0EF76E0800F5502318D8A416D45E
:10FDE20013EC76F0120E0D6EFF0E0E6E74EC78F0C0
:10FDF200000E4F6E090E4F6401D00AD0FF0E236E23
:10FE02008A0EE82EFED7232EFCD700D04F2AF2D737
:10FE1200000E506E090E506401D00AD0FF0E236E00
:10FE22008A0EE82EFED7232EFCD700D0502AF2D716
:10FE3200000E516E090E516401D00AD0FF0E236EDE
:10FE42008A0EE82EFED7232EFCD700D0512AF2D7F5
:10FE520013EC76F0900E0D6EFF0E0E6E74EC78F0D1
:10FE6200C00E43EC75F0AD0E0D6EFF0E0E6E74EC0F
:10FE720078F0000E526E090E526401D00AD0FF0EC5
:10FE8200236E8A0EE82EFED7232EFCD700D0522AEC
:10FE9200F2D7000E536E090E536401D00AD0FF0E42
:10FEA200236E8A0EE82EFED7232EFCD700D0532ACB
:10FEB200F2D7000E546E090E546402D007EF7BF0A5
:10FEC200FF0E236E8A0EE82EFED7232EFCD700D01B
:10FED200542AF1D70031323341343536423738397A
:10FEE200432A3023440001000A006400E80310277B
:10FEF200010010000001001000111301060217306A
:10FF020031323334353637383961626364656600BD
:10FF1200446F776E6C6F6164696E672E2E2E00548B
:10FF220065726D696E6174696E672E2E2E00333AAA
:10FF320020504320446F776E6C6F6164002530322D
:10FF4200782F253032782F253032780025303278DC
:10FF52003A253032783A2530327800507265737320
:10FF620020416E79204B6579004F7065726174692A
:10FF72006E672E2E2E00663A25303278206D696E1D
:10FF82002000733A25303278206D696E2000446F6C
:10FF9200776E6C6F61642000454D455247454E4374
:10FFA2005900253032782073656300436F6D706CA1
:10FFB20065746500207365636F6E647300206D69FC
:10FFC2006E7574657300546F2052657365740031E9
:10FFD2003A20537461727400323A204C6F67730096
:10FFE200546F74616C3A0053544F500025303264A0
:0DFFF2000041413A0039563A00433A000000
:020000040020DA
:08000000FFFFFFFFFFFFFFFF00
:020000040030CA
:0E000000FF021F1EFF8381FF0FC00FE00F40A5
:00000001FF
