:0400000007EF00F016
:0A0008005B82D9ED08F0CDEF09F09E
:1010000000010000000A00000064000000E8030086
:101010000010270000A086010040420F0080969833
:101020000000E1F50500CA9A3B00803F0020410026
:10103000C842007A44401C4650C34724744997185C
:101040004BBCBE4C6B6E4E03155079AD60F34971CD
:1010500000803FCDCC3DD7233C12833AB7D138C670
:101060002737388635C0D633CC2B32708930E7DB52
:0B1070002EE53C1E42A20D256600008C
:10107C00000E216E000E206E000E1F6E000E1E6EF6
:10108C00000E3A6E000E396E000E2D6E000E2C6E98
:10109C00F00ED36E92689368000E946E000E956EEF
:1010AC00030E966E000E896E000E8A6E000E8B6E0D
:1010BC00000E8C6E000E8D6E000EC26E080EC16E90
:1010CC00000EB56EB496C08EF19E900ECD6E900E45
:1010DC00B16ECD909D809E90B190A082A192F28E27
:1010EC00F28C8C80000E556E090E556401D00AD01E
:1010FC00FF0E546E8A0EE82EFED7542EFCD700D06D
:10110C00552AF2D7000E566E090E566401D00AD03D
:10111C00FF0E546E8A0EE82EFED7542EFCD700D04C
:10112C00562AF2D7000E576E090E576401D00AD01A
:10113C00FF0E546E8A0EE82EFED7542EFCD700D02C
:10114C00572AF2D7000E586E090E586401D00AD0F7
:10115C00FF0E546E8A0EE82EFED7542EFCD700D00C
:10116C00582AF2D78C90000E596E090E596401D092
:10117C000AD0FF0E546E8A0EE82EFED7542EFCD7E2
:10118C0000D0592AF2D7000E5A6E090E5A6401D0BB
:10119C00A8D7FF0E546E8A0EE82EFED7542EFCD71D
:1011AC0000D05A2AF2D70600FACF46F0FBCF47F010
:1011BC00E9CF48F0EACF49F0E1CF4AF0E2CF4BF06B
:1011CC00D9CF4CF0DACF4DF0F3CF4EF0F4CF4FF047
:1011DC00F6CF50F0F7CF51F0F8CF52F0F5CF53F0E7
:1011EC00F29E9EA003D05AEC09F004D0A1A203D029
:1011FC001FEC09F0F28E53C0F5FF52C0F8FF51C03E
:10120C00F7FF50C0F6FF4FC0F4FF4EC0F3FF4DC0C8
:10121C00DAFF4CC0D9FF4BC0E2FF4AC0E1FF49C026
:10122C00EAFF48C0E9FF47C0FBFF46C0FAFF5B92EC
:10123C001100CD90A19200D000D000D000D0B19080
:10124C001FBE06D0F40E1E5C010E1F58D8B024D061
:10125C003904D8A40ED0000E396E4E0E456E200EF9
:10126C00446E8D9244C03CF045C03DF095EC09F0C5
:10127C0010D03950D8A40DD0010E396E050E436E26
:10128C00910E426E8D8242C03CF043C03DF095EC15
:10129C0009F01E4A1F2A1200000E1F6E000E1E6E51
:1012AC008D92010E2C6E12009E90B19000D000D049
:1012BC0000D000D0CD9021BE06D0F40E205C010EE3
:1012CC002158D8B024D03A04D8A40ED0000E3A6ECF
:1012DC004E0E456E200E446E8D9044C03CF045C0C1
:1012EC003DF0B1EC09F010D03A50D8A40DD0010E5D
:1012FC003A6E0A0E436E280E426E8D8042C03CF050
:10130C0043C03DF0B1EC09F0204A212A1200000E36
:10131C00216E000E206E8D90010E2D6E12003CC0C1
:10132C003EF03DC03FF03E1E3F1E3E4A3F2A120E8D
:10133C003E24406E000E3F20416E4150B36E40C0C3
:10134C00B2FFB1802D50D8A4120000D000D000D034
:10135C0000D0CD8012003CC03EF03DC03FF03E1EA0
:10136C003F1E3E4A3F2A120E3E24406E000E3F2086
:10137C00416E4150CF6E40C0CEFFCD802C50D8A4D2
:10138C00120000D000D000D000D0B180120000EECE
:10139C0001F03B0EEE6AE806FDE15B905B92000EFD
:0C13AC00F86E100EF76E00013EEF08F026
:020000040020DA
:08000000FFFFFFFFFFFFFFFF00
:020000040030CA
:0E000000FF021F1EFF8381FF0FC00FE00F40A5
:00000001FF
