:0400000007EF00F016
:0A0008006C8211ED1EF0E6EF21F00E
:10100000003132334134353642373839432A3023C0
:10101000440001000A006400E803102701001000EA
:101020000001001000330301100417303132333453
:101030003536373839616263646566002530327849
:101040002F253032782F2530327820002530327825
:101050003A253032783A253032782000496E69746A
:1010600069616C697A696E672E2E2E00746F7461E7
:101070006C3A20253032640020433A202530326417
:10108000202000536F7274696E672E2E2E0041412E
:101090003A2025303264200039563A202530326417
:1010A00000207365636F6E647300206D696E7574E4
:1010B000657300583A202530326400313A53746128
:1010C000727400206D696E202000323A4C6F677395
:0710D00000207365630000BE
:1010D800F00ED36E92689368000E946E000E956EB3
:1010E800030E966E000E896E000E8A6E000E8B6ED1
:1010F800000E8C6E000E8D6E000EC26E080EC16E54
:10110800000EB56EB496C08EF19EA40ECD6EA40EE0
:10111800B16ECD909E90B190A1929D80A082F28CEC
:10112800100E00018D6F270E8E6F000E8F6F000E50
:10113800906F63EC20F017EC21F0F28E000E0001A6
:10114800FB6F000E0001FA6F000E656E000E646EF4
:10115800040E636E040E626E000E546E000E536E23
:10116800000E526E000E516E010E616E010E606E21
:10117800000E0001F96F000E0001F86F000E4E6EB0
:10118800000E4F6E000E506E000E696E000E6A6EF5
:10119800000E6B6E000E666E000E676E000E686EB7
:1011A800000E0001EB6F000E0001EC6F000E000155
:1011B800ED6F000E486E000E496E000E4A6E000E6E
:1011C800456E000E466E000E476E000E426E000E13
:1011D800436E000E446E000E5F6E000E5E6E000ED3
:1011E8005D6E000E0001F56F000EF46F000E000139
:1011F800F36F000EF26F000E0001F16F000EF06F3A
:10120800000E0001EF6F000EEE6F000E0001F76F89
:10121800000E0001F66F000E0001C16F000E000104
:10122800C26F000E0001E76F280E0001E06F900EFC
:101238000001E16FB80E0001E26FE00E0001E36FFC
:10124800300E0001E46F080E0001E56F000E00018A
:10125800DA6F000E0001DB6F000E0001DD6F000E7B
:101268000001DE6F000E0001E66F000E0001DF6F67
:1012780083D041EC22F0000E0001826FD00E816F06
:1012880038EC22F0000E0001826F000E816F38ECFE
:1012980022F03DEC22F041EC22F0000E0001826FBA
:1012A800D10E816F38EC22F0000E0001D66F050ECA
:1012B8000001D66501D010D00001D651010DCF0E26
:1012C800F324D96E000EF420DA6E010E8FEC21F0B3
:1012D800DF6E0001D62BEBD7000E8FEC21F000015A
:1012E800D56F3DEC22F0800E30EC22F03C0E000170
:1012F8008C6F100E00018D6FD5C08EF000018F6BC2
:10130800D4C090F00001916BD3C092F00001936BB0
:10131800ABEC14F0BB0E00018C6F100E00018D6F4A
:10132800ABEC14F0C00E30EC22F04C0E00018C6FC8
:10133800100E00018D6FD1C08EF000018F6BD0C0F0
:1013480090F00001916BCFC092F00001936BABEC71
:1013580014F0CA0E00018C6F100E00018D6FABECFB
:1013680014F0010E96EC1FF0000180510001C16FCE
:101378000001C105D8B402D081A27BD781380F0BF8
:101388000F0B0001DC6F81B2FED700F000F0000106
:10139800DC51010D010EF324F66E100EF420F76EE9
:1013A8000800F5CFB1F0010EF66E100EF76E0800CA
:1013B800F5500001B119D8A4FAEF0DF041EC22F074
:1013C800000E0001826FD00E816F38EC22F0000E03
:1013D8000001826F000E816F38EC22F03DEC22F0A4
:1013E80041EC22F0000E0001826FD10E816F38ECC3
:1013F80022F0000E0001D76F050E0001D76501D05D
:1014080010D00001D751010DCF0EF324D96E000E74
:10141800F420DA6E010E8FEC21F0DF6E0001D72B7D
:10142800EBD7000E8FEC21F00001D56F3DEC22F0D8
:10143800D0C0DAF0CFC0DBF00001DA390F0B0F0BA8
:101448000A0D0001DA510F0BF3240001DA6F0001D5
:10145800DB390F0B0F0B0A0D0001DB510F0BF324C7
:101468000001DB6FE70E0001DC6F17EC21F05C0E6A
:1014780000018C6F100E00018D6FABEC14F0010EA3
:101488000001F76F010E0001896FF40E886F5BECA5
:101498001FF0010E0001F66F020E0001896FBC0EED
:1014A800886F20EC1FF00001F951D8B4FCD7000177
:1014B800F851D8B4F8D717EC21F0830E00018C6FDF
:1014C800100E00018D6FABEC14F03ED1F29E8C80B3
:1014D800020E0001B26F040E0001B16FBA0EE82EC1
:1014E800FED7B12FFCD7B22FFAD700F08C90000EA0
:1014F8000001C56F090E0001C56501D00CD0FF0EB3
:101508000001B16F8A0EE82EFED7B12FFCD700F08C
:101518000001C52BEFD7000E0001C66F090E0001B0
:10152800C66501D00CD0FF0E0001B16F8A0EE82EFF
:10153800FED7B12FFCD700F00001C62BEFD7000E65
:101548000001C76F090E0001C76501D00CD0FF0E5E
:101558000001B16F8A0EE82EFED7B12FFCD700F03C
:101568000001C72BEFD7030E3EEC19F0A6C0EBF035
:10157800A7C0ECF0A8C0EDF0040E3EEC19F0A6C030
:10158800E8F0A7C0E9F0A8C0EAF0EBC080F0ECC032
:1015980081F0EDC082F0000E0001836F600E000143
:1015A800846F400E0001856F99EC1CF00001D8B0E3
:1015B8000BD0010E0001F76FF28E020E0001896F49
:1015C800BC0E886F5BEC1FF0E8C080F0E9C081F0CA
:1015D800EAC082F0000E0001836F600E0001846F84
:1015E800400E0001856F99EC1CF00001D8B00BD0BB
:1015F800010E0001F66FF28E010E0001896FF40EE4
:10160800886F20EC1FF00001C34BC42B0001F75179
:10161800D8A40FD00001F651D8A40BD00001C4BF44
:1016280055D70001C45105E1070E0001C35DD8A0DC
:101638004DD741EC22F0000E0001826FD00E816F71
:1016480038EC22F0000E0001826F000E816F38EC3A
:1016580022F03DEC22F041EC22F0000E0001826FF6
:10166800D10E816F38EC22F0000E0001D86F050E04
:101678000001D86501D010D00001D851010DCF0E5E
:10168800F324D96E000EF420DA6E010E8FEC21F0EF
:10169800DF6E0001D82BEBD7000E8FEC21F0000194
:1016A800D56F3DEC22F0D0C0DDF0CFC0DEF00001F8
:1016B800DD390F0B0F0B0A0D0001DD510F0BF32461
:1016C8000001DD6F0001DE390F0B0F0B0A0D000161
:1016D800DE510F0BF3240001DE6F0001DA51000820
:1016E8000001DD250001E66F0001DB510008000163
:1016F800DE250001DF6F0001E6AF05D00001E651ED
:101708003C0F0001E66F0001DFAF09D00001E605DC
:101718000001E66F0001DF513C0F0001DF6F070E8B
:101728000001C3190001C411D8B406D00001E65164
:10173800800A7D0FD8A003D0010E0001C26F000EF1
:101748000001C46F000EC36F0001C2510001D8B47C
:101758005DD7F29ECD90B1909E90A192000E896EB9
:10176800000E8A6E000E8B6E8C908C92000E8D6E21
:1017780000F000F041EC22F0000E0001826FD00E64
:10178800816F38EC22F0000E0001826F000E816F2D
:1017980038EC22F03DEC22F041EC22F0000E000182
:1017A800826FD10E816F38EC22F0000E0001D96FE4
:1017B800050E0001D96501D010D00001D951010DE5
:1017C800CF0EF324D96E000EF420DA6E010E8FECE2
:1017D80021F0DF6E0001D92BEBD7000E8FEC21F042
:1017E8000001D56F3DEC22F0D0C0DDF0CFC0DEF0B7
:1017F8000001DD390F0B0F0B0A0D0001DD510F0B36
:10180800F3240001DD6F0001DE390F0B0F0B0A0D09
:101818000001DE510F0BF3240001DE6F0001DA51E5
:1018280000080001DD250001E66F0001DB5100081A
:101838000001DE250001DF6F0001E6AF05D00001E1
:10184800E6513C0F0001E66F0001DFAF09D000014F
:10185800E6050001E66F0001DF513C0F0001DF6F74
:10186800000E0001C86F020E0001C86501D081D0CA
:101878000001E7510A0F76EC21F00001B36FB3C005
:1018880080F00001E7513AEC21F00001E0510A0F25
:1018980076EC21F00001B46FB4C080F00001E05193
:1018A8003AEC21F00001E1510A0F76EC21F0000139
:1018B800B56FB5C080F00001E1513AEC21F00001AC
:1018C800E2510A0F76EC21F00001B66FB6C080F045
:1018D8000001E2513AEC21F00001E3510A0F76ECE5
:1018E80021F00001B76FB7C080F00001E3513AEC76
:1018F80021F00001E4510A0F76EC21F00001B86FE5
:10190800B8C080F00001E4513AEC21F00001E55143
:101918000A0F76EC21F00001B96FB9C080F0000120
:10192800E5513AEC21F00001E7510A0F0001E76F99
:101938000001E0510A0F0001E06F0001E1510A0FB8
:101948000001E16F0001E2510A0F0001E26F00019E
:10195800E3510A0F0001E36F0001E4510A0F00018F
:10196800E46F0001E5510A0F0001E56F0001C82B83
:101978007AD7E6C080F00001E7513AEC21F0DFC0E9
:1019880080F00001E0513AEC21F0F4C080F0000151
:10199800E1513AEC21F0F2C080F00001E2513AEC5A
:1019A80021F0F0C080F00001E3513AEC21F0EEC0E4
:1019B80080F00001E4513AEC21F00001F4510001FB
:1019C800F2250001F0250001EE250001806F0001DD
:1019D800E5513AEC21F017EC21F09C0E00018C6FD8
:1019E800100E00018D6F0001E65100018E6F8F6BA4
:1019F8008EBF8F07ABEC14F0AA0E00018C6F100E8F
:101A080000018D6FABEC14F0C00E30EC22F09C0E90
:101A180000018C6F100E00018D6F0001DF51000175
:101A28008E6F8F6B8EBF8F07ABEC14F0A10E000189
:101A38008C6F100E00018D6FABEC14F0000E0001DE
:101A4800C96F090E0001C96501D00CD0FF0E000155
:101A5800B16F8A0EE82EFED7B12FFCD700F0000137
:101A6800C92BEFD7000E0001CA6F090E0001CA6525
:101A780001D00CD0FF0E0001B16F8A0EE82EFED700
:101A8800B12FFCD700F00001CA2BEFD717EC21F0DB
:101A98008E0E00018C6F100E00018D6FF4C08EF059
:101AA800F5C08FF0ABEC14F0980E00018C6F100E9F
:101AB80000018D6FF2C08EF0F3C08FF0ABEC14F024
:101AC800C00E30EC22F0780E00018C6F100E000171
:101AD8008D6FF0C08EF0F1C08FF0ABEC14F0B30E48
:101AE80000018C6F100E00018D6FEEC08EF0EFC0FC
:101AF8008FF0ABEC14F0000E0001CB6F090E000163
:101B0800CB6501D00CD0FF0E0001B16F8A0EE82E14
:101B1800FED7B12FFCD700F00001CB2BEFD7000E7A
:101B28000001CC6F090E0001CC6501D00CD0FF0E6E
:101B38000001B16F8A0EE82EFED7B12FFCD700F056
:101B48000001CC2BEFD717EC21F06C0E00018C6F45
:101B5800100E00018D6F0001F2510001F425000103
:101B6800B16F0001F3510001F5210001B26F0001CE
:101B7800F0510001B1270001F1510001B223000129
:101B8800EE510001B12500018E6F0001EF510001F7
:101B9800B22100018F6FABEC14F0000E0001CD6F85
:101BA800090E0001CD6501D00CD0FF0E0001B16F08
:101BB8008A0EE82EFED7B12FFCD700F00001CD2BFE
:101BC800EFD7000E0001CE6F090E0001CE6502D0DE
:101BD800A1EF08F0FF0E0001B16F8A0EE82EFED7C4
:101BE800B12FFCD700F00001CE2BEED70001DC515D
:101BF800010D010EF324F66E100EF420F76E0800A6
:101C0800F5CFB1F0020EF66E100EF76E0800F55023
:101C18000001B119D8A4A1EF08F00001E7511E0F87
:101C28000001E76F0001E0511E0F0001E06F0001A5
:101C3800E5511E0F0001E56F0001E1511E0F000183
:101C4800E16F0001E2511E0F0001E26F0001E35154
:101C58001E0F0001E36F0001E4511E0F0001E46F45
:101C68004BD10001E75176EC21F00001BA6F000179
:101C7800E05176EC21F00001BB6F0001E55176ECF4
:101C880021F00001BC6F0001E15176EC21F0000168
:101C9800BD6F0001E25176EC21F00001BE6F00013A
:101CA800E35176EC21F00001BF6F0001E45176ECBE
:101CB80021F00001C06F17EC21F09C0E00018C6F21
:101CC800100E00018D6F0001BA5100018E6F8F6BED
:101CD8008EBF8F07ABEC14F0C30E00018C6F100E93
:101CE80000018D6FABEC14F09C0E00018C6F100E90
:101CF80000018D6F0001BB5100018E6F8F6B8EBF8D
:101D08008F07ABEC14F0D10E00018C6F100E0001A0
:101D18008D6FABEC14F0C00E30EC22F06C0E0001AD
:101D28008C6F100E00018D6F0001BC5100018E6F89
:101D38008F6B8EBF8F07ABEC14F081A2FED7813872
:101D48000F0B0F0B0001DC6F81B2FED70001DC51D5
:101D5800010D010EF324F66E100EF420F76E080044
:101D6800F5CFB1F0040EF66E100EF76E0800F550C0
:101D78000001B119D8A445D017EC21F08E0E00014E
:101D88008C6F100E00018D6F0001BD5100018E6F28
:101D98008F6B8EBF8F07ABEC14F0980E00018C6F21
:101DA800100E00018D6F0001BE5100018E6F8F6B08
:101DB8008EBF8F07ABEC14F0C00E30EC22F0780E1B
:101DC80000018C6F100E00018D6F0001BF510001E2
:101DD8008E6F8F6B8EBF8F07ABEC14F0B30E0001C4
:101DE8008C6F100E00018D6F0001C05100018E6FC5
:101DF8008F6B8EBF8F07ABEC14F081A2FED781B238
:101E0800FED70001DC51010D010EF324F66E100E11
:101E1800F420F76E0800F5CFB1F00D0EF66E100E37
:101E2800F76E0800F5500001B119D8A427D01E0E8E
:101E38000001E76123D00001E7510A0F0001E76FB5
:101E48000001E0510A0F0001E06F0001E1510A0FA3
:101E58000001E16F0001E2510A0F0001E26F000189
:101E6800E3510A0F0001E36F0001E4510A0F00017A
:101E7800E46F0001E5510A0F0001E56F0001DC5134
:101E8800010D010EF324F66E100EF420F76E080013
:101E9800F5CFB1F00F0EF66E100EF76E0800F55084
:101EA8000001B119D8A428D00001E7510001D8B425
:101EB80023D00001E751F60F0001E76F0001E05160
:101EC800F60F0001E06F0001E151F60F0001E16F2C
:101ED8000001E251F60F0001E26F0001E351F60F35
:101EE8000001E36F0001E451F60F0001E46F000107
:101EF800E551F60F0001E56F0001DC51010D010EFF
:101F0800F324F66E100EF420F76E0800F5CFB1F04A
:101F18000E0EF66E100EF76E0800F5500001B1199E
:101F2800D8B4A1EF08F09DD69E908BA40DD0B180B7
:101F3800A1A2FED7A192B190514A522A000E646E16
:101F4800010E0001FA6F8B948BAE0DD0B180A1A267
:101F5800FED7A192B190514A522A000E646E010E2A
:101F68000001FA6F8B9E6304D8A476D05E50D8A483
:101F78002DD0030E91EC1AF027C0EBF028C0ECF03E
:101F880029C0EDF0010E5E6E000E016E600E026E4D
:101F9800400E036EEBC004F0ECC005F0EDC006F097
:101FA8005AEC1EF0D8B00BD0000E0001F76F000EEF
:101FB8005E6E0001F605D8A41200B1801200030E6F
:101FC8000A6EE80E096EBFEC20F0120054BE06D06F
:101FD800545030E1280E535CD8B02CD06504D8A4F6
:101FE8000ED0000E656E4E0E5A6E200E596E8B92F4
:101FF80059C009F05AC00AF0BFEC20F018D065505B
:10200800D8A415D0010E656E050E5C6E8C0E5B6E45
:102018000001F605D8A404D0050E5C6EAA0E5B6E0E
:102028008B825BC009F05CC00AF0BFEC20F0534A19
:10203800542A1200000E546E000E536E8B92000E3E
:10204800656E4E0E0A6E200E096EBFEC20F0000E73
:102058005E6E020E636E1200020E6318D8A4A2D13F
:102068005E50D8A49FD08C82060E336E130E326E4B
:10207800AE0EE82EFED7322EFCD7332EFAD7000E3E
:1020880091EC1AF027C04EF028C04FF029C050F04C
:10209800000E016E600E026E400E036E4EC004F01C
:1020A8004FC005F050C006F05AEC1EF0D8B029D049
:1020B8008B80020E336E040E326EBA0EE82EFED7F7
:1020C800322EFCD7332EFAD700D0060E91EC1AF038
:1020D80027C04BF028C04CF029C04DF0010E5F6EB0
:1020E8004BC048F04CC049F04DC04AF0010E5E6E3E
:1020F800030E0A6EE80E096EBFEC20F08B908C92EE
:102108001200020E5F6E010E91EC1AF027C069F002
:1021180028C06AF029C06BF0020E91EC1AF027C0B3
:1021280066F028C067F029C068F069C001F06AC08D
:1021380002F06BC003F066C004F067C005F068C029
:1021480006F05AEC1EF0D8A00FD069C009F06AC09A
:102158000AF06BC00BF01C0E0C6E870E0D6E3F0E56
:102168000E6EACEC1BF00ED066C009F067C00AF02A
:1021780068C00BF0AB0E0C6E8A0E0D6E3F0E0E6E25
:10218800ACEC1BF009C045F00AC046F00BC047F0A4
:10219800010E5E6E030E0A6EE80E096EBFEC20F0AB
:1021A8008C9212005F04D8A49AD048C001F049C0AC
:1021B80002F04AC003F0710E046E9D0E056E3F0ECC
:1021C800066E5AEC1EF0D8B041D054BE06D054501A
:1021D80028E1280E535CD8B024D06504D8A40ED0CA
:1021E800000E656E4E0E5A6E200E596E8B9259C0B7
:1021F80009F05AC00AF0BFEC20F010D06550D8A4FE
:102208000DD0010E656E070E5C6E080E5B6E8B823C
:102218005BC009F05CC00AF0BFEC20F0534A542AB6
:102228001200000E546E000E536E000E656E8B92F7
:102238004E0E0A6E200E096EBFEC20F0030E636E80
:102248000001EE4BEF2B000E5E6E120054BE06D05E
:10225800545030E1280E535CD8B02CD06504D8A473
:102268000ED0000E656E4E0E5A6E200E596E8B9271
:1022780059C009F05AC00AF0BFEC20F018D06550D8
:10228800D8A415D0010E656E040E5C6E4C0E5B6E04
:102298000001F605D8A404D0040E5C6E6F0E5B6EC8
:1022A8008B825BC009F05CC00AF0BFEC20F0534A97
:1022B800542A1200000E546E000E536E000E656E06
:1022C8008B92000E5E6E0001F44BF52B040E636ECC
:1022D8004E0E0A6E200E096EBFEC20F01200020EA0
:1022E8005F18D8A45FD0000E016EA00E026E3F0EDC
:1022F800036E45C004F046C005F047C006F05AEC2E
:102308001EF0D8B00ED0040E636E030E0A6EE80EEF
:10231800096EBFEC20F00001F24BF32B000E5E6E4D
:10232800120054BE06D0545028E1280E535CD8B091
:1023380024D06504D8A40ED0000E656E4E0E5A6ED9
:10234800200E596E8B9259C009F05AC00AF0BFECA2
:1023580020F010D06550D8A40DD0010E656E070E80
:102368005C6E080E5B6E8B825BC009F05CC00AF085
:10237800BFEC20F0534A542A1200000E546E000E8F
:10238800536E000E656E8B924E0E0A6E200E096E0D
:10239800BFEC20F0000E5E6E0001EE4BEF2B030E3B
:1023A800636E1200030E6318D8A454D054BE06D02E
:1023B800545030E13C0E535CD8B02CD06504D8A4FE
:1023C8000ED0000E656E4E0E5A6E200E596E8B9210
:1023D80059C009F05AC00AF0BFEC20F018D0655077
:1023E800D8A415D0010E656E030E5C6E8E0E5B6E62
:1023F8000001F605D8A404D0030E5C6EB60E5B6E21
:102408008B825BC009F05CC00AF0BFEC20F0534A35
:10241800542A1200000E546E000E536E8B92000E5A
:10242800656E010E636E0001F951D8A40CD0010E3F
:102438000001F96F000E0001F76F0001F605D8A43E
:102448001200B18012004E0E0A6E200E096EBFEC0B
:1024580020F01200040E6318D8A412006150D8A40A
:1024680044D054BE06D0545030E1190E535CD8B055
:102478002CD06504D8A40ED0000E656E4E0E5A6E90
:10248800200E596E8B9C59C009F05AC00AF0BFEC57
:1024980020F018D06550D8A415D0010E656E020E34
:1024A8005C6E8A0E5B6E0001F605D8A404D0020E9D
:1024B8005C6EA80E5B6E8B8C5BC009F05CC00AF08A
:1024C800BFEC20F0534A542A1200010E616E000E30
:1024D800546E000E536E8B9C000E656E4E0E0A6E87
:1024E800200E096EBFEC20F012006104D8A412007F
:1024F80054BE06D0545030E1190E535CD8B02CD0DD
:102508006504D8A40ED0000E656E4E0E5A6E200ECD
:10251800596E8B9C59C009F05AC00AF0BFEC20F0E4
:1025280018D06550D8A415D0010E656E060E5C6EE5
:10253800270E5B6E0001F605D8A404D0060E5C6E6B
:10254800450E5B6E8B8C5BC009F05CC00AF0BFEC7B
:1025580020F0534A542A1200000E616E000E546E89
:10256800000E536E8B9C000E656E4E0E0A6E200E8A
:10257800096EBFEC20F0030E636E1200A1928BA2CD
:102588000DD0CD809EA0FED79E90CD90534A542A60
:10259800000E656E8B92010E0001FB6F8BAC0DD0A7
:1025A800CD809EA0FED79E90CD90534A542A000E0F
:1025B800656E8B9C010E0001FB6F6204D8A46ED07F
:1025C8005D50D8A42DD0040E91EC1AF027C0E8F085
:1025D80028C0E9F029C0EAF0010E5D6E000E016E18
:1025E800600E026E400E036EE8C004F0E9C005F00C
:1025F800EAC006F05AEC1EF0D8B00BD0000E00016D
:10260800F66F000E5D6E0001F705D8A41200CD80AC
:102618001200030E0A6EE80E096E93EC20F0120009
:1026280052BE06D0525028E1280E515CD8B024D0B2
:102638006404D8A40ED0000E646E4E0E566E200EA2
:10264800556E8B9455C009F056C00AF093EC20F0F3
:1026580010D06450D8A40DD0010E646E060E586ECA
:10266800540E576E8B8457C009F058C00AF093EC8B
:1026780020F0514A522A1200000E526E000E516E7E
:102688008B94000E646E4E0E0A6E200E096E93EC4B
:1026980020F0000E5D6E020E626E1200020E6218CD
:1026A800D8A481D05D50D8A41FD08B8A060E336E73
:1026B800130E326EAE0EE82EFED7322EFCD7332E16
:1026C800FAD7050E91EC1AF027C042F028C043F063
:1026D80029C044F0010E5D6E030E0A6EE80E096E05
:1026E80093EC20F08B9A1200710E016E9D0E026E13
:1026F8003F0E036E42C004F043C005F044C006F02C
:102708005AEC1EF0D8B00ED0040E626E0001F04BE9
:10271800F12B000E5D6E030E0A6EE80E096E93EC47
:1027280020F0120052BE06D0525028E1280E515C0B
:10273800D8B024D06404D8A40ED0000E646E4E0E17
:10274800566E200E556E8B9455C009F056C00AF08F
:1027580093EC20F010D06450D8A40DD0010E646E14
:10276800030E586E840E576E8B8457C009F058C0FC
:102778000AF093EC20F0514A522A1200000E526ED1
:10278800000E516E000E646E8B944E0E0A6E200E73
:10279800096E93EC20F00001EE4BEF2B000E5D6EFE
:1027A800030E626E1200030E6218D8A44CD052BEFB
:1027B80006D0525028E13C0E515CD8B024D06404B5
:1027C800D8A40ED0000E646E4E0E566E200E556EB6
:1027D8008B9455C009F056C00AF093EC20F010D045
:1027E8006450D8A40DD0010E646E090E586E650EA3
:1027F800576E8B8457C009F058C00AF093EC20F04C
:10280800514A522A1200000E526E000E516E8B94DD
:10281800000E646E010E626E0001F851D8A40CD04F
:10282800010E0001F86F000E0001F66F0001F705B8
:10283800D8A41200CD8012004E0E0A6E200E096E2A
:1028480093EC20F01200040E6218D8A41200605015
:10285800D8A43CD052BE06D0525028E1190E515C83
:10286800D8B024D06404D8A40ED0000E646E4E0EE6
:10287800566E200E556E8B9E55C009F056C00AF054
:1028880093EC20F010D06450D8A40DD0010E646EE3
:10289800070E586ED00E576E8B8E57C009F058C071
:1028A8000AF093EC20F0514A522A1200010E606E91
:1028B800000E526E000E516E8B9E000E646E4E0E10
:1028C8000A6E200E096E93EC20F012006004D8A462
:1028D800120052BE06D0525028E1190E515CD8B0F1
:1028E80024D06404D8A40ED0000E646E4E0E566E2A
:1028F800200E556E8B9E55C009F056C00AF093EC19
:1029080020F010D06450D8A40DD0010E646E0C0EC7
:10291800586E800E576E8B8E57C009F058C00AF05B
:1029280093EC20F0514A522A1200000E606E000EFD
:10293800526E000E516E8B9E000E646E030E626E18
:102948004E0E0A6E200E096E93EC20F012008E0EC9
:102958000001996F000E00019A6FC4D1250E000185
:10296800A119D8B405D00001A15128EC22F0BAD1A0
:10297800000E0001A06F000E9F6F000E00019E6FF9
:1029880005D000019E8500018C4B8D2B8CC0F6FF75
:102998008DC0F7FF0800F550300AD8B4F2D78CC0C4
:1029A800F6FF8DC0F7FF0800F550D1EC21F0D8A054
:1029B80044D0000E0001A06F000E9F6F9FC080F0F2
:1029C800A0C081F0000E0001836F0A0E826F5BECDD
:1029D80021F080C09FF081C0A0F0D00E0001946F5C
:1029E800FF0E0001956F8CC0F6FF8DC0F7FF080041
:1029F800F5500001966F976B0001945100019627DE
:102A080000019551000197230001965100019F276D
:102A1800000197510001A02300018C4B8D2B8CC025
:102A2800F6FF8DC0F7FF0800F550D1EC21F0D8A0D3
:102A380004D0C4D700019E8F19D08CC0F6FF8DC07A
:102A4800F7FF00018C4B8D2B0800F5CFA1F000019A
:102A5800A151000AD8B41200640AD8B407D00D0AEC
:102A6800D8B404D0110AD8B4E5D73CD100019EBF30
:102A780019D099C0D9FF9AC0DAFFDECF9CF0DDCF1C
:102A88009DF0020E00019927000E9A2300019DAFC8
:102A980053D0030E00019E1300019C6D9D1FD8B0FA
:102AA8009D2B4AD099C0D9FF9AC0DAFFDECF9CF09F
:102AB800DDCF9DF0020E00019927000E9A233CD02D
:102AC800010E0001A16F050E0001A119D8B43DD077
:102AD8000001A151020D120EF324F66E100EF4201F
:102AE800F76E0900F55000019C5D0900F5500001E2
:102AF8009D59D8A02AD00001A12BE5D7010E0001CD
:102B0800A16F040E0001A119D8B41FD00001A15172
:102B1800020D1C0EF324F66E100EF420F76E090059
:102B2800F55000019C5D0900F55000019D59D8A0A1
:102B38000CD00001A12BE5D700019E51800B000AA3
:102B4800D8B4BED7800AD8B4D9D700019F510001A4
:102B5800A011D8B40BD09EC094F0030E00019417B6
:102B6800D8B404D000019F07D8A0A007800E0001A8
:102B7800A1BF7F0E0001946F00019F510001A15D6C
:102B88000001A051800A00019459D8B00BD000016F
:102B9800A15100019F5F000E0001A1BFFF0E0001BF
:102BA800A05B05D0000E0001A06F000E9F6F000112
:102BB8009EA518D09EC094F0030E00019417D8B4B7
:102BC80003D02D0E28EC22F000019F510001A01126
:102BD800D8B425D0300E28EC22F000019F07D8A0E9
:102BE800A007F2D700019F510001A011D8B40DD061
:102BF800200E28EC22F000019F07D8A0A0070001B2
:102C08009F510001A011D8A4F3D79EC094F0030EE1
:102C180000019417D8B403D02D0E28EC22F0A1C0DF
:102C28009BF05AD000019B51020D120EF324F66E50
:102C3800100EF420F76E0900F5CF82F00A00F5CFE8
:102C480083F09CC080F09DC081F0E4EC1EF080C051
:102C580087F081C088F0000E00018A6F0A0E896F24
:102C680032EC20F000018751300F0001A16F30D005
:102C78009CC080F09DC081F000019B51020D1C0E8C
:102C8800F324F66E100EF420F76E0900F5CF82F0EB
:102C98000A00F5CF83F0E4EC1EF0000180510F0B21
:102CA8000001986F00019851010D2B0EF324F66E68
:102CB800100EF420F76E0800F5CFA1F009D000013E
:102CC8009E51800B000AD8B4ADD7800AD8B4D0D7AB
:102CD8000001A15128EC22F000019B0700019B296B
:102CE800D8A4EDD78CC0F6FF8DC0F7FF00018C4B40
:102CF8008D2B0800F5CFA1F00001A151D8B4120026
:102D08002DD68DC091F00001926B936B00018C352C
:102D18000001913701E39281000191510001966F02
:102D280090C091F00001926B936B00018F35000108
:102D3800913701E39281000191510001956F0001E3
:102D480096510001D8B411D0000195510001965D4B
:102D5800D8B012D000019651000800019525000155
:102D6800916F180E0001916507D08EC08BF08FC04F
:102D78008CF090C08DF01200000195510001D8B47C
:102D880011D0000196510001955DD8B012D0000114
:102D980095510008000196250001916F180E000159
:102DA800916507D08BC08BF08CC08CF08DC08DF0F6
:102DB8001200060E0001946F00018DAF02D00001D1
:102DC800948F000190AF02D00001948D00018C8F88
:102DD800FF0E00018B17FF0E00018C17000E00017B
:102DE8008D1700018F8FFF0E00018E17FF0E000157
:102DF8008F17000E00019017000195510001965D94
:102E0800D8B025D00001D8908E378F379037000181
:102E180095070001965100019519D8B411D0000109
:102E2800940794C091F0070E00019117D8B408D008
:102E3800E9D70001D8908D338C338B330001962B62
:102E48000001955100019619D8B42BD0F2D7000192
:102E580096510001955DD8B024D00001D8908B37E9
:102E68008C378D370001960700019651000195199E
:102E7800D8B411D00001940794C091F0070E000156
:102E88009117D8B408D0E9D70001D89090338F3380
:102E98008E330001952B0001955100019619D8A495
:102EA800F3D7000194AF12D0FF0E00018B1BFF0E69
:102EB80000018C1BFF0E00018D1B010E00018B27EA
:102EC800000E00018C23000E00018D23000194AD3B
:102ED80012D0FF0E00018E1BFF0E00018F1BFF0E8C
:102EE8000001901B010E00018E27000E00018F23A8
:102EF800000E00019023000E0001946F00018B5119
:102F080000018E2700018C5100018F2300018D5193
:102F180000019023000190AF15D0FF0E00018E1B19
:102F2800FF0E00018F1BFF0E0001901B010E000118
:102F38008E27000E00018F23000E00019023010E42
:102F48000001946F8EC080F08FC081F090C082F035
:102F580096C083F094C084F026EC1BF080C08BF000
:102F680081C08CF082C08DF012000EC012F0136A7E
:102F7800146A0D34123601E313801250176E11C013
:102F880012F0136A146A1034123601E313801250D7
:102F9800166E1750D8B40BD01650175CD8B00ED098
:102FA800175000081624126E180E126407D00FC0AE
:102FB8000CF010C00DF011C00EF012001650D8B46D
:102FC8000BD01750165CD8B00ED016500008172436
:102FD800126E180E126407D00CC00CF00DC00DF064
:102FE8000EC00EF01200060E156E0EBE158E11BE26
:102FF800158C0D8EFF0E0C16FF0E0D16000E0E16FC
:10300800108EFF0E0F16FF0E1016000E111616501A
:10301800175CD8B01BD0D8900F361036113616066C
:1030280017501618D8B40DD0150615C012F0070E93
:103038001216D8B406D0EFD7D8900E320D320C3213
:10304800172A16501718D8B41FD0F6D71750165C81
:10305800D8B01AD0D8900C360D360E361706175041
:103068001618D8B40DD0150615C012F0070E121692
:10307800D8B406D0EFD7D890113210320F32162AB2
:1030880016501718D8A4F7D715AE0CD0FF0E0C1A87
:10309800FF0E0D1AFF0E0E1A010E0C26000E0D2241
:1030A800000E0E2215AC0CD0FF0E0F1AFF0E101AD0
:1030B800FF0E111A010E0F26000E1022000E11220B
:1030C800000E156E0C500F260D5010220E501122B6
:1030D80011AE0ED0FF0E0F1AFF0E101AFF0E111AA6
:1030E800010E0F26000E1022000E1122010E156E81
:1030F8000FC001F010C002F011C003F017C004F0B7
:1031080015C005F0BAEC1DF001C00CF002C00DF0BE
:1031180003C00EF012008AC08EF000018F6B906B16
:103128000001893500018E3701E38F8100018E513E
:103138000001916F00019151D8A40AD0000E00013E
:10314800886F000E0001896F000E00018A6F12005F
:103158008DC08EF000018F6B906B00018C350001E3
:103168008E3701E38F8100018E510001966F0001B7
:103178009651D8A40AD0000E0001886F000E0001F5
:10318800896F000E00018A6F1200000196517B0FB3
:10319800000191278AC096F000018D510001961B0D
:1031A800800E000196170001898F00018C8FFF0E99
:1031B80000018B17FF0E00018C17000E00018D1700
:1031C800000E0001926F000E0001936F000E0001C7
:1031D800946F070E0001956F000188A10CD00001C3
:1031E8008B510001922700018C51000193230001AB
:1031F8008D51000194230001D8908A338933883394
:103208000001D8908B378C378D370001952FE4D784
:10321800090E0001956F000188A10CD000018B51A7
:103228000001922700018C510001932300018D5168
:10323800000194230001D8908A3389338833000130
:10324800D8909433933392330001952FE4D792C0EA
:1032580080F093C081F094C082F091C083F096C052
:1032680084F026EC1BF080C088F081C089F082C011
:103278008AF012000001B06F000E0001AD6F000E61
:103288000001AE6F000E0001AF6F000E0001AC6FC1
:10329800630E0001AC6501D022D00001B051A6EC4C
:1032A80021F0C3CF88F0C4CF89F0BCEC21F088C0EE
:1032B8008BF089C08CF08AC08DF0ADC08EF0AEC0A6
:1032C8008FF0AFC090F085EC16F08BC0ADF08CC0DD
:1032D800AEF08DC0AFF000D00001AC2BD9D7ADC097
:1032E80097F0AEC098F0AFC099F0000E00019A6F49
:1032F800C80E00019B6F420E00019C6FEBEC19F0A9
:1033080097C0ADF098C0AEF099C0AFF0A10E000123
:103318008B6F9E0E00018C6F400E00018D6FADC04B
:1033280088F0AEC089F0AFC08AF08FEC18F088C082
:1033380097F089C098F08AC099F0C00E00019A6F82
:103348007F0E00019B6F440E00019C6FEBEC19F09F
:1033580097C0A9F098C0AAF099C0ABF00001B005D9
:10336800D8B40FD0020E0001B019D8B40AD0050E97
:103378000001B019D8B405D0060E0001B019D8A4C0
:103388001FD0A9C08BF0AAC08CF0ABC08DF0000E86
:1033980000018E6F200E00018F6FC00E0001906F2C
:1033A80085EC16F08BC097F08CC098F08DC099F022
:1033B800FFEC1FF097C0A9F098C0AAF099C0ABF035
:1033C800A9C0A6F0AAC0A7F0ABC0A8F0120099C087
:1033D8009DF000019E6B9F6B0001983500019D37A1
:1033E80001E39E8100019D510001A46F0001A451D9
:1033F800D8A40AD0000E0001976F000E0001986F44
:10340800000E0001996F12009CC09DF000019E6B98
:103418009F6B00019B3500019D3701E39E810001F0
:103428009D510001A56F0001A551D8A40AD0000E36
:103438000001976F000E0001986F000E0001996F50
:103448001200000E0001A16F000E0001A26F000E15
:103458000001A36F0001A551890F0001A45F99C065
:10346800A5F000019C510001A51B800E0001A517C5
:103478000001988FFF0E00019717FF0E00019817A3
:10348800000E0001991700019B8FFF0E00019A178B
:10349800FF0E00019B17000E00019C17180E00017B
:1034A800A06F0001D890A137A237A33700019A5125
:1034B8000001975D00019B510001985900019C5142
:1034C80000019959D8A00ED000019A510001975FC8
:1034D80000019B510001985B00019C510001995B20
:1034E8000001A1810001D8909737983799370001DA
:1034F800A02FD7D7A1C080F0A2C081F0A3C082F0CE
:10350800A4C083F0A5C084F026EC1BF080C097F01F
:1035180081C098F082C099F01200316E000E2E6EB4
:10352800000E2F6E000E306E000E2D6E630E2D6491
:1035380001D020D03150F9EC21F0C3CF09F0C4CF2D
:103548000AF00CEC22F009C00CF00AC00DF00BC018
:103558000EF02EC00FF02FC010F030C011F0B9ECF3
:1035680017F00CC02EF00DC02FF00EC030F000D0B8
:103578002D2ADCD72EC018F02FC019F030C01AF051
:10358800000E1B6EC80E1C6E420E1D6E26EC1CF043
:1035980018C02EF019C02FF01AC030F0A10E0C6E12
:1035A8009E0E0D6E400E0E6E2EC009F02FC00AF052
:1035B80030C00BF0ACEC1BF009C018F00AC019F0D1
:1035C8000BC01AF0C00E1B6E7F0E1C6E440E1D6ED3
:1035D80026EC1CF018C02AF019C02BF01AC02CF0E9
:1035E8003104D8B40CD0020E3118D8B408D0050E66
:1035F8003118D8B404D0060E3118D8A41CD02AC06B
:103608000CF02BC00DF02CC00EF0000E0F6E200E2B
:10361800106EC00E116EB9EC17F00CC018F00DC08A
:1036280019F00EC01AF0EBEC20F018C02AF019C0FF
:103638002BF01AC02CF02AC027F02BC028F02CC081
:1036480029F01200000183510001D8B408D000010C
:1036580080510001811100018211D8A411D0000EFF
:103668000001806F000E0001816F000E0001826F63
:1036780012000001832B0001D890823381338033FC
:10368800000E000180150001856F000E00018115F4
:103698000001866FFE0E000182150001876F000190
:1036A80085510001861100018711D8B411D0E1D7E6
:1036B8000001832B010E00018027000E00018123E9
:1036C800000E000182230001D890823381338033B9
:1036D800000E000180150001856F000E00018115A4
:1036E8000001866FFF0E000182150001876F00013F
:1036F80085510001861100018711D8B408D0D8D7A8
:10370800000183070001D890803781378237000194
:1037180081BF04D0020E00018361F2D7000183B19A
:1037280002D00001819F0001D890833300018351AA
:1037380000018213000184510001D8B402D00001B5
:10374800828F80C080F081C081F082C082F0120038
:103758000BC00FF0106A116A0A340F3601E31080AB
:103768000F50126E1250D8A407D0000E096E000E2A
:103778000A6E000E0B6E12000EC00FF0106A116A6E
:103788000D340F3601E310800F50176E1750D8A470
:1037980007D0000E096E000E0A6E000E0B6E1200A6
:1037A80017507B0F12260BC017F00E50171A800EF9
:1037B80017160A8E0D8EFF0E0C16FF0E0D16000E34
:1037C8000E16000E136E000E146E000E156E070E08
:1037D800166E09A006D00C5013260D5014220E5058
:1037E8001522D8900B320A320932D8900C360D3691
:1037F8000E36162EEED7090E166E09A006D00C50FE
:1038080013260D5014220E501522D8900B320A326E
:103818000932D890153214321332162EEED713C04F
:1038280001F014C002F015C003F012C004F017C074
:1038380005F0BAEC1DF001C009F002C00AF003C09F
:103848000BF012001AC01EF01F6A206A19341E36C7
:1038580001E31F801E50256E2550D8A407D0000E06
:10386800186E000E196E000E1A6E12001DC01EF0A2
:103878001F6A206A1C341E3601E31F801E50266E04
:103888002650D8A407D0000E186E000E196E000E30
:103898001A6E1200000E226E000E236E000E246EA9
:1038A8002650890F255E1AC026F01D50261A800E54
:1038B8002616198EFF0E1816FF0E1916000E1A1668
:1038C8001C8EFF0E1B16FF0E1C16000E1D16180E62
:1038D800216ED8902236233624361B50185C1C5093
:1038E80019581D501A58D8A007D01B50185E1C50E4
:1038F800195A1D501A5A2280D890183619361A3675
:10390800212EE7D722C001F023C002F024C003F023
:1039180025C004F026C005F0BAEC1DF001C018F06F
:1039280002C019F003C01AF01200000182AF1DD0C6
:1039380080C086F081C087F082C088F00001861FB1
:10394800871F881F862B000E87238823000E0001FF
:1039580086250001806F000E000187210001816F1C
:10396800800E000188210001826F000185AF1DD003
:1039780083C086F084C087F085C088F00001861F68
:10398800871F881F862B000E87238823000E0001BF
:1039980086250001836F000E000187210001846FD6
:1039A800800E000188210001856F000E0001801B38
:1039B800000E0001811B800E0001821B000E000119
:1039C800831B000E0001841B800E0001851B000173
:1039D80083510001805D000184510001815900017B
:1039E800855100018259D8B002D0D8901200D880F1
:1039F8001200000E0001856F000183AF08D000019E
:103A0800826D831FD8B0832B010E0001856F0001E2
:103A180081AF08D00001806D811FD8B0812B010EC5
:103A28000001851B000E0001876F000E866F0001E4
:103A3800825100018311D8B42CD0010E0001846F8B
:103A480006D00001D890823783370001842B00010B
:103A580083AFF7D70001D8908637873700018251A6
:103A68000001805D0001835100018159D8A00AD06E
:103A7800000182510001805F000183510001815BD8
:103A8800000186810001D890833382330001842F9E
:103A9800E1D7000185510001D8B405D00001866D39
:103AA800871FD8B0872B86C080F087C081F01200AE
:103AB800000E0001886F000E896F000E8A6F000EDD
:103AC8008B6F0001845100018511000186110001EE
:103AD8008711D8B442D0010E00018C6F08D00001C4
:103AE800D890843785378637873700018C2B0001BB
:103AF80087AFF5D70001D890883789378A378B3751
:103B0800000184510001805D000185510001815947
:103B18000001865100018259000187510001835933
:103B2800D8A012D0000184510001805F00018551A6
:103B38000001815B000186510001825B0001875111
:103B48000001835B000188810001D89087338633A8
:103B58008533843300018C2FCDD788C080F089C08D
:103B680081F08AC082F08BC083F012000450D8B470
:103B780005D0015002100310D8A40CD0000E016E1D
:103B8800000E026E000E036E1200042AD890033253
:103B980002320132000E0114066E000E0214076E86
:103BA800FE0E0314086E065007100810D8B40CD087
:103BB800ECD7042A010E0126000E0222000E032271
:103BC800D890033202320132000E0114066E000E44
:103BD8000214076EFF0E0314086E06500710081033
:103BE800D8B406D0E6D70406D89001360236033694
:103BF80002BE03D0020E0460F6D704A0029ED8903D
:103C08000432045003120550D8A4038E01C001F0F9
:103C180002C002F003C003F012000600FACF34F02D
:103C2800FBCF35F0E9CF36F0EACF37F0E1CF38F007
:103C3800E2CF39F0D9CF3AF0DACF3BF0F3CF3CF00E
:103C4800F4CF3DF0F6CF3EF0F7CF3FF0F8CF40F09D
:103C5800F5CF41F0F29EB19000D0CD909EA003D058
:103C680098EC0FF004D0A1A203D0C2EC12F0F28EAF
:103C780041C0F5FF40C0F8FF3FC0F7FF3EC0F6FF68
:103C88003DC0F4FF3CC0F3FF3BC0DAFF3AC0D9FFA8
:103C980039C0E2FF38C0E1FF37C0EAFF36C0E9FFAC
:103CA80035C0FBFF34C0FAFF6C92110003AE16D08A
:103CB80001C007F002C008F003C009F0071E081E83
:103CC800091E072A000E08220922000E0724016E89
:103CD800000E0820026E800E0920036E06AE16D074
:103CE80004C007F005C008F006C009F0071E081E4A
:103CF800091E072A000E08220922000E0724046E56
:103D0800000E0820056E800E0920066E000E011AAE
:103D1800000E021A800E031A000E041A000E051A6D
:103D2800800E061A0450015C0550025806500358CC
:103D3800D8B002D0D8901200D8801200000E066EBB
:103D480004AE06D0036C041ED8B0042A010E066E19
:103D580002AE06D0016C021ED8B0022A010E061A65
:103D6800000E086E000E076E03500410D8B41CD065
:103D7800010E056E04D0D89003360436052A04AE29
:103D8800FAD7D890073608360350015C0450025819
:103D9800D8A005D00350015E0450025A0780D8907D
:103DA80004320332052EEDD70650D8B404D0076C80
:103DB800081ED8B0082A07C001F008C002F0120097
:103DC800000E0001856F000E846F00018251000112
:103DD8008311D8B42CD0010E0001866F06D00001E3
:103DE800D890823783370001862B000183AFF7D73D
:103DF8000001D89084378537000182510001805D29
:103E08000001835100018159D8A00AD000018251D4
:103E18000001805F000183510001815B0001848102
:103E28000001D890833382330001862FE1D784C004
:103E380080F085C081F01200D8900001883500011B
:103E4800806F000189350001816F000E0001836FCA
:103E5800040E826FFDEC1CF00001801F0001811F21
:103E68000001804B812BFF0E0001802500018A6F25
:103E7800FF0E0001812100018B6F00018B51B36E91
:103E88008AC0B2FFB1800001FB05D8A40AD0180E81
:103E980000018B6FEF0E8A6F00018B51CF6E8AC0C5
:103EA800CEFF0001F705D8A41200CD801200D890EB
:103EB800000188350001806F000189350001816F9C
:103EC800000E0001836F040E826FFDEC1CF00001F0
:103ED800801F0001811F0001804B812BFF0E000114
:103EE800802500018A6FFF0E0001812100018B6F80
:103EF80000018B51CF6E8AC0CEFFCD800001FA053C
:103F0800D8A40AD0180E00018B6FEF0E8A6F00013B
:103F18008B51B36E8AC0B2FF0001F605D8A4120017
:103F2800B18012000001856F000E0001866F13D06A
:103F380081A206D0000E0001816F010E806F120071
:103F4800FF0E0001826F8A0EE82EFED7822FFCD763
:103F580000F00001862B000185510A0D00018651F1
:103F68000001826F836BF3500001825D0001835171
:103F7800800A0001846FF450800A00018459D8A097
:103F8800D7D7000E0001816F000E806F120000016C
:103F9800816F00018151F00B0001806F8C500F0B75
:103FA8008C6E000180518C108C6E8C96100EE82E51
:103FB800FED700D08C86100EE82EFED700D0000168
:103FC8008139F00B0001816F00018151F00B000174
:103FD800806F8C500F0B8C6E000180518C108C6E92
:103FE8008C96100EE82EFED700D08C86100EE82E88
:103FF800FED700D01200000E0001806F000E0001F5
:10400800816F000E0001826F97C083F098C084F022
:1040180099C085F099EC1CF00001D8B007D097C082
:1040280097F098C098F099C099F0120097C088F05E
:1040380098C089F099C08AF0000E00018B6F800E3D
:1040480000018C6FBF0E00018D6F8FEC18F088C0D7
:1040580097F089C098F08AC099F012000001895140
:1040680000018A11D8B426D0010E00018B6F06D04A
:104078000001D89089378A3700018B2B00018AAF5D
:10408800F7D7000189510001875D00018A510001BD
:104098008859D8A008D0000189510001875F000124
:1040A8008A510001885B0001D8908A338933000166
:1040B8008B2FE7D787C087F088C088F01200000EE2
:1040C800C76E280EC66E000EC56E000E0001806F0A
:1040D800120E816F7A0E826F000E836F8DC091F081
:1040E8008EC092F08FC093F090C094F0020ED890DA
:1040F80000019137923793379437E82EF8D791C05B
:1041080084F092C085F093C086F094C087F05CEC90
:104118001DF000018005C86E948694881200D8901E
:104128000934016E0A34026E000E046E040E036E2A
:10413800A2EC1EF0011E021E014A022AFF0E0124F3
:104148000B6EFF0E02200C6E0C50B36E0BC0B2FF4C
:10415800B1800001FB05D8A408D0180E0C6EEF0E34
:104168000B6E0C50CF6E0BC0CEFF0001F705D8A424
:104178001200CD801200D8900934016E0A34026E04
:10418800000E046E040E036EA2EC1EF0011E021E49
:10419800014A022AFF0E01240B6EFF0E02200C6E4C
:1041A8000C50CF6E0BC0CEFFCD800001FA05D8A40D
:1041B80008D0180E0C6EEF0E0B6E0C50B36E0BC0C1
:1041C800B2FF0001F605D8A41200B1801200000E5B
:1041D800016E000E026E000E036E18C004F019C0C6
:1041E80005F01AC006F05AEC1EF0D8B007D018C077
:1041F80018F019C019F01AC01AF0120018C009F006
:1042080019C00AF01AC00BF0000E0C6E800E0D6E6D
:10421800BF0E0E6EACEC1BF009C018F00AC019F006
:104228000BC01AF01200270E0001836FF50EE82E5E
:10423800FED7832FFCD7330E30EC22F0320E30EC51
:1042480022F0280E30EC22F00F0E30EC22F0060E91
:1042580030EC22F0010E30EC22F0270E0001836FC3
:10426800F50EE82EFED7832FFCD712000001836FCE
:1042780083C081F0080E0001826F0001813581330F
:104288000001822FFAD700018151AA6E83C0A9FFCD
:1042980080C0A8FFA69EA69CA684550EA76EAA0E4F
:1042A800A76EA682A1A8FED7A198A6941200000125
:1042B800805100018203F3CF84F0F4CF85F0000130
:1042C800805100018303F3500001852700018151CB
:1042D80000018203F3500001852784C080F085C067
:1042E80081F012000001826F82C080F0080E000188
:1042F800816F0001803580330001812FFAD70001DA
:104308008051AA6E82C0A9FFA69EA69CA680A6B0D0
:10431800FED7A85012000001816F1EEC22F0C5865E
:104328001EEC22F0C9CF82F01EEC22F00001815170
:104338000001D8A402D0C58A01D0C59AC588000159
:10434800825112000001816F00018145E846FC0B93
:10435800C26EC280C28209D0060E0001806F300E84
:10436800E82EFED7802FFCD700F0C2A21200F4D7A7
:1043780088C080F089C081F00001826B8E0E000138
:10438800836F000E0001846F26EC1BF080C088F05C
:1043980081C089F082C08AF012000001826F000E8D
:1043A8000001816F3A0E0001826107D02F0E0001D3
:1043B800826503D0010E0001816F81C080F0000189
:1043C8008031120000EEE8F0140EEE6AE806FDE116
:1043D80000EE42F02A0EEE6AE806FDE16C906C925F
:1043E800000EF86E00016CEF08F0026E0244E84619
:1043F800FC0BC26EC280C28208D0060E016E300E5F
:10440800E82EFED7012EFCD700D0C2A21200F5D7A5
:1044180009C001F00AC002F0036A8E0E046E000E95
:10442800056EBAEC1DF001C009F002C00AF003C025
:104438000BF01200C7B4FED7C5CF80F01F0E0001E5
:104448008017D8B41200F6D70001826F8C8400015F
:104458008251CBEC1FF012000001826F8C94000196
:104468008251CBEC1FF012001EEC22F081C0C9FF74
:1044780012001EEC22F0C58412001EEC22F0C5804A
:02448800120020
:020000040020DA
:08000000FFFFFFFFFFFFFFFF00
:020000040030CA
:0E000000FF021F1EFF8381FF0FC00FE00F40A5
:00000001FF
