:0400000007EF00F016
:100008007082D1ED05F055EF07F0A192B1906F0421
:10001800D8A436D080AA02D0A0921200130E516044
:1000280023D05404D8A40ED0000E546E61C026F01C
:1000380062C027F08B9426C009F027C00AF070EC44
:1000480007F010D05450D8A40DD0010E546E63C0E0
:1000580028F064C029F08B8428C009F029C00AF070
:1000680070EC07F0512A1200000E516E8B94020EAC
:100078006F6E28C009F029C00AF070EC07F0120072
:10008800020E6F18D8A4A7D04D504E10D8A40DD08A
:10009800020EA7EC06F01CC03EF01DC03FF01EC0CB
:1000A80040F0000E4E6E010E4D6E3EC01CF03FC07B
:1000B8001DF040C01EF09A0E106E590E116E3F0EC4
:1000C800126E5EC00DF05FC00EF060C00FF05DEC08
:1000D80003F00DC01FF00EC020F00FC021F01DEC82
:1000E80006F0D8B040D05750D8A403D0D7EC03F0CE
:1000F8001200130E516023D05404D8A40ED0000E61
:10010800546E69C026F06AC027F08B8426C009F0B7
:1001180027C00AF070EC07F010D05450D8A40DD0C6
:10012800010E546E6BC028F06CC029F08B8428C077
:1001380009F029C00AF070EC07F0512A1200000EED
:10014800516E000E576E000E4E6E000E4D6E474AF1
:10015800482A8B94010E6F6E6BC009F06CC00AF0D0
:1001680070EC07F01200130E516023D05404D8A489
:100178000ED0000E546E65C026F066C027F08B9432
:1001880026C009F027C00AF070EC07F010D05450D0
:10019800D8A40DD0010E546E67C028F068C029F0AD
:1001A8008B8428C009F029C00AF070EC07F0512AA6
:1001B8001200000E516E454A462A000E4E6E000E81
:1001C8004D6E8B9467C009F068C00AF070EC07F0B8
:1001D800030E6F6E1200030E6F18D8A41200130ED0
:1001E800516023D05404D8A40ED0000E546E69C0B8
:1001F80026F06AC027F08B9426C009F027C00AF0C1
:1002080070EC07F010D05450D8A40DD0010E546EE5
:100218006BC028F06CC029F08B8428C009F029C075
:100228000AF070EC07F0512A1200000E516E8B9400
:10023800010E6F6E6BC009F06CC00AF070EC07F02D
:1002480012009E90CD906E04D8A436D080A802D01B
:100258009D901200130E506023D05304D8A40ED0E2
:10026800000E536E61C026F062C027F08B9226C044
:1002780009F027C00AF08BEC07F010D05350D8A42F
:100288000DD0010E536E63C028F064C029F08B8234
:1002980028C009F029C00AF08BEC07F04F2A120099
:1002A800000E506E8B92020E6E6E28C009F029C0A7
:1002B8000AF08BEC07F01200020E6E18D8A4A7D033
:1002C8004B504C10D8A40DD0010EA7EC06F01CC062
:1002D80038F01DC039F01EC03AF0000E4C6E010E09
:1002E8004B6E38C01CF039C01DF03AC01EF09A0E93
:1002F800106E590E116E3F0E126E5BC00DF05CC091
:100308000EF05DC00FF05DEC03F00DC01FF00EC0E5
:1003180020F00FC021F01DEC06F0D8B040D05650A8
:10032800D8A403D043EC04F01200130E506023D07D
:100338005304D8A40ED0000E536E69C026F06AC0CC
:1003480027F08B8226C009F027C00AF08BEC07F053
:1003580010D05350D8A40DD0010E536E6BC028F0A6
:100368006CC029F08B8228C009F029C00AF08BECF8
:1003780007F0502A1200000E506E000E566E000E46
:100388004C6E000E4B6E474A482A8B92010E6E6ED9
:100398006BC009F06CC00AF08BEC07F01200130E6A
:1003A800506023D05304D8A40ED0000E536E65C0FD
:1003B80026F066C027F08B9226C009F027C00AF005
:1003C8008BEC07F010D05350D8A40DD0010E536E0B
:1003D80067C028F068C029F08B8228C009F029C0BE
:1003E8000AF08BEC07F0502A1200000E506E414ABA
:1003F800422A000E4C6E000E4B6E8B9267C009F0BD
:1004080068C00AF08BEC07F0030E6E6E1200030E44
:100418006E18D8A41200130E506023D05304D8A429
:100428000ED0000E536E69C026F06AC027F08B927A
:1004380026C009F027C00AF08BEC07F010D0535003
:10044800D8A40DD0010E536E6BC028F06CC029F0F3
:100458008B8228C009F029C00AF08BEC07F0502ADB
:100468001200000E506E8B92010E6E6E6BC009F07A
:100478006CC00AF08BEC07F01200F294D59E6D0464
:10048800D8A436D080A602D0F29A1200130E4F607C
:1004980023D05204D8A40ED0000E526E61C026F0AC
:1004A80062C027F08B9026C009F027C00AF0A6EC9E
:1004B80007F010D05250D8A40DD0010E526E63C070
:1004C80028F064C029F08B8028C009F029C00AF000
:1004D800A6EC07F04F2A1200000E4F6E8B90020E0A
:1004E8006D6E28C009F029C00AF0A6EC07F01200CA
:1004F800020E6D18D8A4A7D049504A10D8A40DD020
:10050800000EA7EC06F01CC03BF01DC03CF01EC05E
:100518003DF0000E4A6E010E496E3BC01CF03CC017
:100528001DF03DC01EF09A0E106E590E116E3F0E52
:10053800126E5EC00DF05FC00EF060C00FF05DEC93
:1005480003F00DC01FF00EC020F00FC021F01DEC0D
:1005580006F0D8B040D05550D8A403D0AFEC04F082
:100568001200130E4F6023D05204D8A40ED0000EF0
:10057800526E69C026F06AC027F08B9026C009F039
:1005880027C00AF0A6EC07F010D05250D8A40DD01E
:10059800010E526E6BC028F06CC029F08B8028C009
:1005A80009F029C00AF0A6EC07F04F2A1200000E45
:1005B8004F6E000E556E000E4A6E000E496E474A89
:1005C800482A8B90010E6D6E6BC009F06CC00AF062
:1005D800A6EC07F01200130E4F6023D05204D8A4E3
:1005E8000ED0000E526E65C026F066C027F08B90C4
:1005F80026C009F027C00AF0A6EC07F010D0525028
:10060800D8A40DD0010E526E67C028F068C029F03A
:100618008B8028C009F029C00AF0A6EC07F04F2A01
:100628001200000E4F6E434A442A000E4A6E000E16
:10063800496E8B9067C009F068C00AF0A6EC07F015
:10064800030E6D6E1200030E6D18D8A41200130E5F
:100658004F6023D05204D8A40ED0000E526E69C049
:1006680026F06AC027F08B9026C009F027C00AF050
:10067800A6EC07F010D05250D8A40DD0010E526E3F
:100688006BC028F06CC029F08B8028C009F029C005
:100698000AF0A6EC07F04F2A1200000E4F6E8B905E
:1006A800010E6D6E6BC009F06CC00AF0A6EC07F085
:1006B80012000FC013F0146A156A0E34133601E3E2
:1006C80014801350166E1650D8A407D0000E0D6E65
:1006D800000E0E6E000E0F6E120012C013F0146A98
:1006E800156A1134133601E3148013501B6E1B5026
:1006F800D8A407D0000E0D6E000E0E6E000E0F6E01
:1007080012001B507B0F16260FC01BF012501B1A2D
:10071800800E1B160E8E118EFF0E1016FF0E111670
:10072800000E1216000E176E000E186E000E196ECF
:10073800070E1A6E0DA006D0105017261150182259
:1007480012501922D8900F320E320D32D89010362E
:10075800113612361A2EEED7090E1A6E0DA006D0D3
:10076800105017261150182212501922D8900F3203
:100778000E320D32D8901932183217321A2EEED79F
:1007880017C001F018C002F019C003F016C004F039
:100798001BC005F07AEC05F001C00DF002C00EF0A8
:1007A80003C00FF012005A50D8A432D0130E516073
:1007B80023D05404D8A40ED0000E546E61C00FF09C
:1007C80062C010F08B9A0FC009F010C00AF070ECEC
:1007D80007F010D05450D8A40DD0010E546E63C049
:1007E8000DF064C00EF08B8A0DC009F00EC00AF03F
:1007F80070EC07F0512A1200010E5A6E000E516E6D
:100808008B9A63C009F064C00AF070EC07F012001C
:100818005A04D8A41200130E516023D05404D8A44B
:100828000ED0000E546E69C00FF06AC010F08B9A9B
:100838000FC009F010C00AF070EC07F010D0545047
:10084800D8A40DD0010E546E6BC00DF06CC00EF024
:100858008B8A0DC009F00EC00AF070EC07F0512A1F
:100868001200000E5A6E000E516E8B9A010E576ED2
:100878006BC009F06CC00AF070EC07F01200595018
:10088800D8A432D0130E506023D05304D8A40ED06D
:10089800000E536E61C00FF062C010F08B980FC04D
:1008A80009F010C00AF08BEC07F010D05350D8A410
:1008B8000DD0010E536E63C00DF064C00EF08B882E
:1008C8000DC009F00EC00AF08BEC07F0502A120098
:1008D800010E596E000E506E8B9863C009F064C00B
:1008E8000AF08BEC07F012005904D8A41200130E7A
:1008F800506023D05304D8A40ED0000E536E69C0A4
:100908000FF06AC010F08B980FC009F010C00AF001
:100918008BEC07F010D05350D8A40DD0010E536EB5
:100928006BC00DF06CC00EF08B880DC009F00EC0C6
:100938000AF08BEC07F0502A1200000E596E000ED8
:10094800506E8B98010E566E6BC009F06CC00AF0A1
:100958008BEC07F012005850D8A432D0130E4F6019
:1009680023D05204D8A40ED0000E526E61C00FF0EE
:1009780062C010F08B960FC009F010C00AF0A6EC08
:1009880007F010D05250D8A40DD0010E526E63C09B
:100998000DF064C00EF08B860DC009F00EC00AF091
:1009A800A6EC07F04F2A1200010E586E000E4F6E8B
:1009B8008B9663C009F064C00AF0A6EC07F0120039
:1009C8005804D8A41200130E4F6023D05204D8A4A0
:1009D8000ED0000E526E69C00FF06AC010F08B96F0
:1009E8000FC009F010C00AF0A6EC07F010D0525062
:1009F800D8A40DD0010E526E6BC00DF06CC00EF075
:100A08008B860DC009F00EC00AF0A6EC07F04F2A3D
:100A18001200000E586E000E4F6E8B96010E556E2A
:100A28006BC009F06CC00AF0A6EC07F01200000ECB
:100A38000001856F000183AF08D00001826D831F1C
:100A4800D8B0832B010E0001856F000181AF08D05B
:100A58000001806D811FD8B0812B010E0001851B1C
:100A6800000E0001876F000E866F000182510001A1
:100A78008311D8B42CD0010E0001846F06D0000178
:100A8800D890823783370001842B000183AFF7D7D2
:100A98000001D89086378737000182510001805DB8
:100AA8000001835100018159D8A00AD00001825168
:100AB8000001805F000183510001815B0001868194
:100AC8000001D890833382330001842FE1D70001DD
:100AD80085510001D8B405D00001866D871FD8B0B4
:100AE800872B86C080F087C081F012000450D8B4EC
:100AF80005D0015002100310D8A40CD0000E016ECE
:100B0800000E026E000E036E1200042AD890033203
:100B180002320132000E0114066E000E0214076E36
:100B2800FE0E0314086E065007100810D8B40CD037
:100B3800ECD7042A010E0126000E0222000E032221
:100B4800D890033202320132000E0114066E000EF4
:100B58000214076EFF0E0314086E065007100810E3
:100B6800D8B406D0E6D70406D89001360236033644
:100B780002BE03D0020E0460F6D704A0029ED890ED
:100B88000432045003120550D8A4038E01C001F0AA
:100B980002C002F003C003F012000600FACF2AF0E8
:100BA800FBCF2BF0E9CF2CF0EACF2DF0E1CF2EF0E0
:100BB800E2CF2FF0D9CF30F0DACF31F0F3CF32F0E7
:100BC800F4CF33F0F6CF34F0F7CF35F0F8CF36F076
:100BD800F5CF37F09DB09EA003D025EC01F00BD0E7
:100BE800F2BAF2A403D041EC02F005D0A0B2A1A25F
:100BF80002D009EC00F037C0F5FF36C0F8FF35C069
:100C0800F7FF34C0F6FF33C0F4FF32C0F3FF31C042
:100C1800DAFF30C0D9FF2FC0E2FF2EC0E1FF2DC0A0
:100C2800EAFF2CC0E9FF2BC0FBFF2AC0FAFF709235
:100C380011001EAE16D01CC022F01DC023F01EC02D
:100C480024F0221E231E241E222A000E23222422E0
:100C5800000E22241C6E000E23201D6E800E242000
:100C68001E6E21AE16D01FC022F020C023F021C076
:100C780024F0221E231E241E222A000E23222422B0
:100C8800000E22241F6E000E2320206E800E2420CA
:100C9800216E000E1C1A000E1D1A800E1E1A000E60
:100CA8001F1A000E201A800E211A1F501C5C20509B
:100CB8001D5821501E58D8B002D0D8901200D880A4
:100CC8001200000E066E04AE06D0036C041ED8B0E7
:100CD800042A010E066E02AE06D0016C021ED8B0C0
:100CE800022A010E061A000E086E000E076E035047
:100CF8000410D8B41CD0010E056E04D0D890033669
:100D08000436052A04AEFAD7D890073608360350B9
:100D1800015C04500258D8A005D00350015E04506D
:100D2800025A0780D89004320332052EEDD70650B8
:100D3800D8B404D0076C081ED8B0082A07C001F040
:100D480008C002F01200256E2544E846FC0BC26E6E
:100D5800C280C28208D0060E1F6E300EE82EFED763
:100D68001F2EFCD700D0C2B2F6D7C3CF23F0C4CF12
:100D780024F023C009F024C00AF039EC07F009C0B8
:100D88000DF00AC00EF00BC00FF00D0E106E840EA1
:100D9800116E3B0E126E5DEC03F00DC020F00EC01C
:100DA80021F00FC022F020C01CF021C01DF022C08D
:100DB8001EF01200F00ED36EE70E926E9368000ECE
:100DC800946E000E956E000E966E000E896E000EE3
:100DD8008A6E000E8B6E000E8C6E000E8D6E000EED
:100DE800C26E0B0EC16EF19E100ED56E900ECD6EBA
:100DF800940EB16ED59EF28AF294CD909D809E900D
:100E0800B190A082A192F28EF28C030E0001896F3C
:100E1800E80E886F11EC07F0FFD7D89000018835ED
:100E28000001806F000189350001816F000E00010B
:100E3800836F020E826F1BEC05F00001801F00011A
:100E4800811F0001804B812BFF0E000180250001CE
:100E58008A6FFF0E0001812100018B6F00018B5109
:100E6800B36E8AC0B2FFB1801200000E0C6E0AAEDB
:100E780006D0096C0A1ED8B00A2A010E0C6E09C0E9
:100E880001F00AC002F0036A8E0E046E0CC005F071
:100E98007AEC05F001C009F002C00AF003C00BF0BB
:100EA8001200820EF66E0F0EF76E000EF86E00EE50
:100EB8005BF010EE15F00900F5CFEEFFE550E150BC
:100EC800FAE100EE38F0230EEE6AE806FDE17090D4
:100ED80070920001DEEF06F0D8900934016E0A34F2
:100EE800026E000E046E020E036E65EC06F0011E23
:100EF800021E014A022AFF0E01240B6EFF0E022079
:100F08000C6E0C50B36E0BC0B2FFB1801200D890BB
:100F18000934016E0A34026E000E046E020E036E6E
:100F280065EC06F0011E021E014A022AFF0E01248A
:100F38000B6EFF0E02200C6E0C50CF6E0BC0CEFF56
:100F4800CD801200D8900934016E0A34026E000E6A
:100F5800046E020E036E65EC06F0011E021E014AC5
:100F6800022AFF0E01240B6EFF0E02200C6E0C509D
:100F7800D76E0BC0D6FFD58E120000104100C03FBF
:0F0F88004A47D6066E41A60EA94CB20C010101D4
:020000040020DA
:08000000FFFFFFFFFFFFFFFF00
:020000040030CA
:0E000000FF021F1EFF8381FF0FC00FE00F40A5
:00000001FF
